{
  "_format": "hh-sol-artifact-1",
  "contractName": "AstarNFTCommon",
  "sourceName": "contracts/AstarNFTCommon.sol",
  "abi": [
    {
      "inputs": [
        {
          "internalType": "string",
          "name": "baseTokenURI",
          "type": "string"
        }
      ],
      "stateMutability": "nonpayable",
      "type": "constructor"
    },
    {
      "inputs": [],
      "name": "ERC721EnumerableForbiddenBatchMint",
      "type": "error"
    },
    {
      "inputs": [
        {
          "internalType": "address",
          "name": "sender",
          "type": "address"
        },
        {
          "internalType": "uint256",
          "name": "tokenId",
          "type": "uint256"
        },
        {
          "internalType": "address",
          "name": "owner",
          "type": "address"
        }
      ],
      "name": "ERC721IncorrectOwner",
      "type": "error"
    },
    {
      "inputs": [
        {
          "internalType": "address",
          "name": "operator",
          "type": "address"
        },
        {
          "internalType": "uint256",
          "name": "tokenId",
          "type": "uint256"
        }
      ],
      "name": "ERC721InsufficientApproval",
      "type": "error"
    },
    {
      "inputs": [
        {
          "internalType": "address",
          "name": "approver",
          "type": "address"
        }
      ],
      "name": "ERC721InvalidApprover",
      "type": "error"
    },
    {
      "inputs": [
        {
          "internalType": "address",
          "name": "operator",
          "type": "address"
        }
      ],
      "name": "ERC721InvalidOperator",
      "type": "error"
    },
    {
      "inputs": [
        {
          "internalType": "address",
          "name": "owner",
          "type": "address"
        }
      ],
      "name": "ERC721InvalidOwner",
      "type": "error"
    },
    {
      "inputs": [
        {
          "internalType": "address",
          "name": "receiver",
          "type": "address"
        }
      ],
      "name": "ERC721InvalidReceiver",
      "type": "error"
    },
    {
      "inputs": [
        {
          "internalType": "address",
          "name": "sender",
          "type": "address"
        }
      ],
      "name": "ERC721InvalidSender",
      "type": "error"
    },
    {
      "inputs": [
        {
          "internalType": "uint256",
          "name": "tokenId",
          "type": "uint256"
        }
      ],
      "name": "ERC721NonexistentToken",
      "type": "error"
    },
    {
      "inputs": [
        {
          "internalType": "address",
          "name": "owner",
          "type": "address"
        },
        {
          "internalType": "uint256",
          "name": "index",
          "type": "uint256"
        }
      ],
      "name": "ERC721OutOfBoundsIndex",
      "type": "error"
    },
    {
      "inputs": [
        {
          "internalType": "address",
          "name": "owner",
          "type": "address"
        }
      ],
      "name": "OwnableInvalidOwner",
      "type": "error"
    },
    {
      "inputs": [
        {
          "internalType": "address",
          "name": "account",
          "type": "address"
        }
      ],
      "name": "OwnableUnauthorizedAccount",
      "type": "error"
    },
    {
      "anonymous": false,
      "inputs": [
        {
          "indexed": true,
          "internalType": "address",
          "name": "owner",
          "type": "address"
        },
        {
          "indexed": true,
          "internalType": "address",
          "name": "approved",
          "type": "address"
        },
        {
          "indexed": true,
          "internalType": "uint256",
          "name": "tokenId",
          "type": "uint256"
        }
      ],
      "name": "Approval",
      "type": "event"
    },
    {
      "anonymous": false,
      "inputs": [
        {
          "indexed": true,
          "internalType": "address",
          "name": "owner",
          "type": "address"
        },
        {
          "indexed": true,
          "internalType": "address",
          "name": "operator",
          "type": "address"
        },
        {
          "indexed": false,
          "internalType": "bool",
          "name": "approved",
          "type": "bool"
        }
      ],
      "name": "ApprovalForAll",
      "type": "event"
    },
    {
      "anonymous": false,
      "inputs": [
        {
          "indexed": true,
          "internalType": "address",
          "name": "to",
          "type": "address"
        },
        {
          "indexed": true,
          "internalType": "uint256",
          "name": "tokenId",
          "type": "uint256"
        }
      ],
      "name": "Minted",
      "type": "event"
    },
    {
      "anonymous": false,
      "inputs": [
        {
          "indexed": true,
          "internalType": "address",
          "name": "previousOwner",
          "type": "address"
        },
        {
          "indexed": true,
          "internalType": "address",
          "name": "newOwner",
          "type": "address"
        }
      ],
      "name": "OwnershipTransferred",
      "type": "event"
    },
    {
      "anonymous": false,
      "inputs": [
        {
          "indexed": true,
          "internalType": "address",
          "name": "from",
          "type": "address"
        },
        {
          "indexed": true,
          "internalType": "address",
          "name": "to",
          "type": "address"
        },
        {
          "indexed": true,
          "internalType": "uint256",
          "name": "tokenId",
          "type": "uint256"
        }
      ],
      "name": "Transfer",
      "type": "event"
    },
    {
      "inputs": [
        {
          "internalType": "address",
          "name": "to",
          "type": "address"
        },
        {
          "internalType": "uint256",
          "name": "tokenId",
          "type": "uint256"
        }
      ],
      "name": "approve",
      "outputs": [],
      "stateMutability": "nonpayable",
      "type": "function"
    },
    {
      "inputs": [
        {
          "internalType": "address",
          "name": "owner",
          "type": "address"
        }
      ],
      "name": "balanceOf",
      "outputs": [
        {
          "internalType": "uint256",
          "name": "",
          "type": "uint256"
        }
      ],
      "stateMutability": "view",
      "type": "function"
    },
    {
      "inputs": [],
      "name": "endTimestamp",
      "outputs": [
        {
          "internalType": "uint256",
          "name": "",
          "type": "uint256"
        }
      ],
      "stateMutability": "view",
      "type": "function"
    },
    {
      "inputs": [
        {
          "internalType": "uint256",
          "name": "tokenId",
          "type": "uint256"
        }
      ],
      "name": "getApproved",
      "outputs": [
        {
          "internalType": "address",
          "name": "",
          "type": "address"
        }
      ],
      "stateMutability": "view",
      "type": "function"
    },
    {
      "inputs": [
        {
          "internalType": "address",
          "name": "owner",
          "type": "address"
        },
        {
          "internalType": "address",
          "name": "operator",
          "type": "address"
        }
      ],
      "name": "isApprovedForAll",
      "outputs": [
        {
          "internalType": "bool",
          "name": "",
          "type": "bool"
        }
      ],
      "stateMutability": "view",
      "type": "function"
    },
    {
      "inputs": [],
      "name": "maxMintPerWallet",
      "outputs": [
        {
          "internalType": "uint256",
          "name": "",
          "type": "uint256"
        }
      ],
      "stateMutability": "view",
      "type": "function"
    },
    {
      "inputs": [],
      "name": "mint",
      "outputs": [],
      "stateMutability": "nonpayable",
      "type": "function"
    },
    {
      "inputs": [
        {
          "internalType": "address",
          "name": "wallet",
          "type": "address"
        }
      ],
      "name": "mintedCount",
      "outputs": [
        {
          "internalType": "uint256",
          "name": "",
          "type": "uint256"
        }
      ],
      "stateMutability": "view",
      "type": "function"
    },
    {
      "inputs": [],
      "name": "name",
      "outputs": [
        {
          "internalType": "string",
          "name": "",
          "type": "string"
        }
      ],
      "stateMutability": "view",
      "type": "function"
    },
    {
      "inputs": [],
      "name": "owner",
      "outputs": [
        {
          "internalType": "address",
          "name": "",
          "type": "address"
        }
      ],
      "stateMutability": "view",
      "type": "function"
    },
    {
      "inputs": [
        {
          "internalType": "uint256",
          "name": "tokenId",
          "type": "uint256"
        }
      ],
      "name": "ownerOf",
      "outputs": [
        {
          "internalType": "address",
          "name": "",
          "type": "address"
        }
      ],
      "stateMutability": "view",
      "type": "function"
    },
    {
      "inputs": [],
      "name": "renounceOwnership",
      "outputs": [],
      "stateMutability": "nonpayable",
      "type": "function"
    },
    {
      "inputs": [
        {
          "internalType": "address",
          "name": "from",
          "type": "address"
        },
        {
          "internalType": "address",
          "name": "to",
          "type": "address"
        },
        {
          "internalType": "uint256",
          "name": "tokenId",
          "type": "uint256"
        }
      ],
      "name": "safeTransferFrom",
      "outputs": [],
      "stateMutability": "nonpayable",
      "type": "function"
    },
    {
      "inputs": [
        {
          "internalType": "address",
          "name": "from",
          "type": "address"
        },
        {
          "internalType": "address",
          "name": "to",
          "type": "address"
        },
        {
          "internalType": "uint256",
          "name": "tokenId",
          "type": "uint256"
        },
        {
          "internalType": "bytes",
          "name": "data",
          "type": "bytes"
        }
      ],
      "name": "safeTransferFrom",
      "outputs": [],
      "stateMutability": "nonpayable",
      "type": "function"
    },
    {
      "inputs": [
        {
          "internalType": "address",
          "name": "operator",
          "type": "address"
        },
        {
          "internalType": "bool",
          "name": "approved",
          "type": "bool"
        }
      ],
      "name": "setApprovalForAll",
      "outputs": [],
      "stateMutability": "nonpayable",
      "type": "function"
    },
    {
      "inputs": [
        {
          "internalType": "string",
          "name": "_newBaseURI",
          "type": "string"
        }
      ],
      "name": "setBaseURI",
      "outputs": [],
      "stateMutability": "nonpayable",
      "type": "function"
    },
    {
      "inputs": [
        {
          "internalType": "uint256",
          "name": "_setEndTimestamp",
          "type": "uint256"
        }
      ],
      "name": "setEndTimestamp",
      "outputs": [],
      "stateMutability": "nonpayable",
      "type": "function"
    },
    {
      "inputs": [
        {
          "internalType": "uint256",
          "name": "_maxMint",
          "type": "uint256"
        }
      ],
      "name": "setMaxMintPerWallet",
      "outputs": [],
      "stateMutability": "nonpayable",
      "type": "function"
    },
    {
      "inputs": [
        {
          "internalType": "uint256",
          "name": "_setStartTimestamp",
          "type": "uint256"
        }
      ],
      "name": "setStartTimestamp",
      "outputs": [],
      "stateMutability": "nonpayable",
      "type": "function"
    },
    {
      "inputs": [],
      "name": "startTimestamp",
      "outputs": [
        {
          "internalType": "uint256",
          "name": "",
          "type": "uint256"
        }
      ],
      "stateMutability": "view",
      "type": "function"
    },
    {
      "inputs": [
        {
          "internalType": "bytes4",
          "name": "interfaceId",
          "type": "bytes4"
        }
      ],
      "name": "supportsInterface",
      "outputs": [
        {
          "internalType": "bool",
          "name": "",
          "type": "bool"
        }
      ],
      "stateMutability": "view",
      "type": "function"
    },
    {
      "inputs": [],
      "name": "symbol",
      "outputs": [
        {
          "internalType": "string",
          "name": "",
          "type": "string"
        }
      ],
      "stateMutability": "view",
      "type": "function"
    },
    {
      "inputs": [
        {
          "internalType": "uint256",
          "name": "index",
          "type": "uint256"
        }
      ],
      "name": "tokenByIndex",
      "outputs": [
        {
          "internalType": "uint256",
          "name": "",
          "type": "uint256"
        }
      ],
      "stateMutability": "view",
      "type": "function"
    },
    {
      "inputs": [
        {
          "internalType": "address",
          "name": "owner",
          "type": "address"
        },
        {
          "internalType": "uint256",
          "name": "index",
          "type": "uint256"
        }
      ],
      "name": "tokenOfOwnerByIndex",
      "outputs": [
        {
          "internalType": "uint256",
          "name": "",
          "type": "uint256"
        }
      ],
      "stateMutability": "view",
      "type": "function"
    },
    {
      "inputs": [
        {
          "internalType": "uint256",
          "name": "tokenId",
          "type": "uint256"
        }
      ],
      "name": "tokenURI",
      "outputs": [
        {
          "internalType": "string",
          "name": "",
          "type": "string"
        }
      ],
      "stateMutability": "view",
      "type": "function"
    },
    {
      "inputs": [],
      "name": "totalSupply",
      "outputs": [
        {
          "internalType": "uint256",
          "name": "",
          "type": "uint256"
        }
      ],
      "stateMutability": "view",
      "type": "function"
    },
    {
      "inputs": [
        {
          "internalType": "address",
          "name": "from",
          "type": "address"
        },
        {
          "internalType": "address",
          "name": "to",
          "type": "address"
        },
        {
          "internalType": "uint256",
          "name": "tokenId",
          "type": "uint256"
        }
      ],
      "name": "transferFrom",
      "outputs": [],
      "stateMutability": "nonpayable",
      "type": "function"
    },
    {
      "inputs": [
        {
          "internalType": "address",
          "name": "newOwner",
          "type": "address"
        }
      ],
      "name": "transferOwnership",
      "outputs": [],
      "stateMutability": "nonpayable",
      "type": "function"
    },
    {
      "inputs": [],
      "name": "withdraw",
      "outputs": [],
      "stateMutability": "nonpayable",
      "type": "function"
    }
  ],
  "bytecode": "0x608060405234801561001057600080fd5b50604051611b51380380611b5183398101604081905261002f91610160565b60408051808201825260208082527f417374617220457870616e73696f6e3a20536f6e6569756d2047656e6573697381830152825180840190935260048352634145534760e01b908301523391600061008883826102b5565b50600161009582826102b5565b5050506001600160a01b0381166100c657604051631e4fbdf760e01b81526000600482015260240160405180910390fd5b6100cf816100f8565b506367b510f0600b556367be4b70600c556001600d55600e6100f182826102b5565b5050610373565b600a80546001600160a01b038381166001600160a01b0319831681179093556040519116919082907f8be0079c531659141344cd1fd0a4f28419497f9722a3daafe3b4186f6b6457e090600090a35050565b634e487b7160e01b600052604160045260246000fd5b60006020828403121561017257600080fd5b81516001600160401b0381111561018857600080fd5b8201601f8101841361019957600080fd5b80516001600160401b038111156101b2576101b261014a565b604051601f8201601f19908116603f011681016001600160401b03811182821017156101e0576101e061014a565b6040528181528282016020018610156101f857600080fd5b60005b82811015610217576020818501810151838301820152016101fb565b50600091810160200191909152949350505050565b600181811c9082168061024057607f821691505b60208210810361026057634e487b7160e01b600052602260045260246000fd5b50919050565b601f8211156102b057806000526020600020601f840160051c8101602085101561028d5750805b601f840160051c820191505b818110156102ad5760008155600101610299565b50505b505050565b81516001600160401b038111156102ce576102ce61014a565b6102e2816102dc845461022c565b84610266565b6020601f82116001811461031657600083156102fe5750848201515b600019600385901b1c1916600184901b1784556102ad565b600084815260208120601f198516915b828110156103465787850151825560209485019460019092019101610326565b50848210156103645786840151600019600387901b60f8161c191681555b50505050600190811b01905550565b6117cf806103826000396000f3fe608060405234801561001057600080fd5b50600436106101cf5760003560e01c8063715018a611610104578063b228d925116100a2578063e6fd48bc11610071578063e6fd48bc1461039d578063e985e9c5146103a6578063f2fde38b146103b9578063fddcb5ea146103cc57600080fd5b8063b228d9251461035b578063b88d4fde14610364578063c44bef7514610377578063c87b56dd1461038a57600080fd5b806395d89b41116100de57806395d89b4114610324578063a22cb4651461032c578063a85adeab1461033f578063afdf61341461034857600080fd5b8063715018a6146102f85780637df6a6c8146103005780638da5cb5b1461031357600080fd5b80632f745c59116101715780634f6ccce71161014b5780634f6ccce7146102ac57806355f804b3146102bf5780636352211e146102d257806370a08231146102e557600080fd5b80632f745c591461027e5780633ccfd60b1461029157806342842e0e1461029957600080fd5b8063095ea7b3116101ad578063095ea7b31461023c5780631249c58b1461025157806318160ddd1461025957806323b872dd1461026b57600080fd5b806301ffc9a7146101d457806306fdde03146101fc578063081812fc14610211575b600080fd5b6101e76101e2366004611286565b6103f5565b60405190151581526020015b60405180910390f35b610204610420565b6040516101f391906112f0565b61022461021f366004611303565b6104b2565b6040516001600160a01b0390911681526020016101f3565b61024f61024a366004611338565b6104db565b005b61024f6104ea565b6008545b6040519081526020016101f3565b61024f610279366004611362565b610657565b61025d61028c366004611338565b6106e2565b61024f610747565b61024f6102a7366004611362565b61078b565b61025d6102ba366004611303565b6107ab565b61024f6102cd36600461142f565b610804565b6102246102e0366004611303565b610818565b61025d6102f3366004611478565b610823565b61024f61086b565b61024f61030e366004611303565b61087f565b600a546001600160a01b0316610224565b61020461088c565b61024f61033a366004611493565b61089b565b61025d600c5481565b61024f610356366004611303565b6108a6565b61025d600d5481565b61024f6103723660046114cf565b6108b3565b61024f610385366004611303565b6108cb565b610204610398366004611303565b6108d8565b61025d600b5481565b6101e76103b436600461154b565b610976565b61024f6103c7366004611478565b6109a4565b61025d6103da366004611478565b6001600160a01b03166000908152600f602052604090205490565b60006001600160e01b0319821663780e9d6360e01b148061041a575061041a826109df565b92915050565b60606000805461042f9061157e565b80601f016020809104026020016040519081016040528092919081815260200182805461045b9061157e565b80156104a85780601f1061047d576101008083540402835291602001916104a8565b820191906000526020600020905b81548152906001019060200180831161048b57829003601f168201915b5050505050905090565b60006104bd82610a2f565b506000828152600460205260409020546001600160a01b031661041a565b6104e6828233610a68565b5050565b600b544210156105385760405162461bcd60e51b815260206004820152601460248201527314d85b19481a185cc81b9bdd081cdd185c9d195960621b60448201526064015b60405180910390fd5b600c5442111561057b5760405162461bcd60e51b815260206004820152600e60248201526d14d85b19481a185cc8195b99195960921b604482015260640161052f565b600d54336000908152600f6020526040902054106105e55760405162461bcd60e51b815260206004820152602160248201527f4d6178206d696e74206c696d6974207265616368656420666f722077616c6c656044820152601d60fa1b606482015260840161052f565b60006105f060085490565b6105fb9060016115ce565b90506106073382610a75565b336000908152600f60205260408120805491610622836115e1565b9091555050604051819033907f30385c845b448a36257a6a1716e6ad2e1bc2cbe333cde1e69fe849ad6511adfe90600090a350565b6001600160a01b03821661068157604051633250574960e11b81526000600482015260240161052f565b600061068e838333610a8f565b9050836001600160a01b0316816001600160a01b0316146106dc576040516364283d7b60e01b81526001600160a01b038086166004830152602482018490528216604482015260640161052f565b50505050565b60006106ed83610823565b821061071e5760405163295f44f760e21b81526001600160a01b03841660048201526024810183905260440161052f565b506001600160a01b03919091166000908152600660209081526040808320938352929052205490565b61074f610b64565b600a546040516001600160a01b03909116904780156108fc02916000818181858888f19350505050158015610788573d6000803e3d6000fd5b50565b6107a6838383604051806020016040528060008152506108b3565b505050565b60006107b660085490565b82106107df5760405163295f44f760e21b8152600060048201526024810183905260440161052f565b600882815481106107f2576107f26115fa565b90600052602060002001549050919050565b61080c610b64565b600e6104e68282611657565b600061041a82610a2f565b60006001600160a01b03821661084f576040516322718ad960e21b81526000600482015260240161052f565b506001600160a01b031660009081526003602052604090205490565b610873610b64565b61087d6000610b91565b565b610887610b64565b600c55565b60606001805461042f9061157e565b6104e6338383610be3565b6108ae610b64565b600d55565b6108be848484610657565b6106dc3385858585610c82565b6108d3610b64565b600b55565b60606108e382610a2f565b50600e80546108f19061157e565b80601f016020809104026020016040519081016040528092919081815260200182805461091d9061157e565b801561096a5780601f1061093f5761010080835404028352916020019161096a565b820191906000526020600020905b81548152906001019060200180831161094d57829003601f168201915b50505050509050919050565b6001600160a01b03918216600090815260056020908152604080832093909416825291909152205460ff1690565b6109ac610b64565b6001600160a01b0381166109d657604051631e4fbdf760e01b81526000600482015260240161052f565b61078881610b91565b60006001600160e01b031982166380ac58cd60e01b1480610a1057506001600160e01b03198216635b5e139f60e01b145b8061041a57506301ffc9a760e01b6001600160e01b031983161461041a565b6000818152600260205260408120546001600160a01b03168061041a57604051637e27328960e01b81526004810184905260240161052f565b6107a68383836001610dad565b6104e6828260405180602001604052806000815250610eb3565b600080610a9d858585610ecb565b90506001600160a01b038116610afa57610af584600880546000838152600960205260408120829055600182018355919091527ff3f7a9fe364faab93b216da50a3214154f22a0a2b415b23a84c8169e8b636ee30155565b610b1d565b846001600160a01b0316816001600160a01b031614610b1d57610b1d8185610fc4565b6001600160a01b038516610b3957610b3484611045565b610b5c565b846001600160a01b0316816001600160a01b031614610b5c57610b5c85856110f4565b949350505050565b600a546001600160a01b0316331461087d5760405163118cdaa760e01b815233600482015260240161052f565b600a80546001600160a01b038381166001600160a01b0319831681179093556040519116919082907f8be0079c531659141344cd1fd0a4f28419497f9722a3daafe3b4186f6b6457e090600090a35050565b6001600160a01b038216610c1557604051630b61174360e31b81526001600160a01b038316600482015260240161052f565b6001600160a01b03838116600081815260056020908152604080832094871680845294825291829020805460ff191686151590811790915591519182527f17307eab39ab6107e8899845ad3d59bd9653f200f220920489ca2b5937696c31910160405180910390a3505050565b6001600160a01b0383163b15610da657604051630a85bd0160e11b81526001600160a01b0384169063150b7a0290610cc4908890889087908790600401611716565b6020604051808303816000875af1925050508015610cff575060408051601f3d908101601f19168201909252610cfc91810190611753565b60015b610d68573d808015610d2d576040519150601f19603f3d011682016040523d82523d6000602084013e610d32565b606091505b508051600003610d6057604051633250574960e11b81526001600160a01b038516600482015260240161052f565b805181602001fd5b6001600160e01b03198116630a85bd0160e11b14610da457604051633250574960e11b81526001600160a01b038516600482015260240161052f565b505b5050505050565b8080610dc157506001600160a01b03821615155b15610e83576000610dd184610a2f565b90506001600160a01b03831615801590610dfd5750826001600160a01b0316816001600160a01b031614155b8015610e105750610e0e8184610976565b155b15610e395760405163a9fbf51f60e01b81526001600160a01b038416600482015260240161052f565b8115610e815783856001600160a01b0316826001600160a01b03167f8c5be1e5ebec7d5bd14f71427d1e84f3dd0314c0f7b2291e5b200ac8c7c3b92560405160405180910390a45b505b5050600090815260046020526040902080546001600160a01b0319166001600160a01b0392909216919091179055565b610ebd8383611144565b6107a6336000858585610c82565b6000828152600260205260408120546001600160a01b0390811690831615610ef857610ef88184866111a9565b6001600160a01b03811615610f3657610f15600085600080610dad565b6001600160a01b038116600090815260036020526040902080546000190190555b6001600160a01b03851615610f65576001600160a01b0385166000908152600360205260409020805460010190555b60008481526002602052604080822080546001600160a01b0319166001600160a01b0389811691821790925591518793918516917fddf252ad1be2c89b69c2b068fc378daa952ba7f163c4a11628f55a4df523b3ef91a4949350505050565b6000610fcf83610823565b6000838152600760209081526040808320546001600160a01b038816845260069092529091209192509081831461102657600083815260208281526040808320548584528184208190558352600790915290208290555b6000938452600760209081526040808620869055938552525081205550565b60085460009061105790600190611770565b6000838152600960205260408120546008805493945090928490811061107f5761107f6115fa565b9060005260206000200154905080600883815481106110a0576110a06115fa565b60009182526020808320909101929092558281526009909152604080822084905585825281205560088054806110d8576110d8611783565b6001900381819060005260206000200160009055905550505050565b6000600161110184610823565b61110b9190611770565b6001600160a01b039093166000908152600660209081526040808320868452825280832085905593825260079052919091209190915550565b6001600160a01b03821661116e57604051633250574960e11b81526000600482015260240161052f565b600061117c83836000610a8f565b90506001600160a01b038116156107a6576040516339e3563760e11b81526000600482015260240161052f565b6111b483838361120d565b6107a6576001600160a01b0383166111e257604051637e27328960e01b81526004810182905260240161052f565b60405163177e802f60e01b81526001600160a01b03831660048201526024810182905260440161052f565b60006001600160a01b03831615801590610b5c5750826001600160a01b0316846001600160a01b0316148061124757506112478484610976565b80610b5c5750506000908152600460205260409020546001600160a01b03908116911614919050565b6001600160e01b03198116811461078857600080fd5b60006020828403121561129857600080fd5b81356112a381611270565b9392505050565b6000815180845260005b818110156112d0576020818501810151868301820152016112b4565b506000602082860101526020601f19601f83011685010191505092915050565b6020815260006112a360208301846112aa565b60006020828403121561131557600080fd5b5035919050565b80356001600160a01b038116811461133357600080fd5b919050565b6000806040838503121561134b57600080fd5b6113548361131c565b946020939093013593505050565b60008060006060848603121561137757600080fd5b6113808461131c565b925061138e6020850161131c565b929592945050506040919091013590565b634e487b7160e01b600052604160045260246000fd5b60008067ffffffffffffffff8411156113d0576113d061139f565b50604051601f19601f85018116603f0116810181811067ffffffffffffffff821117156113ff576113ff61139f565b60405283815290508082840185101561141757600080fd5b83836020830137600060208583010152509392505050565b60006020828403121561144157600080fd5b813567ffffffffffffffff81111561145857600080fd5b8201601f8101841361146957600080fd5b610b5c848235602084016113b5565b60006020828403121561148a57600080fd5b6112a38261131c565b600080604083850312156114a657600080fd5b6114af8361131c565b9150602083013580151581146114c457600080fd5b809150509250929050565b600080600080608085870312156114e557600080fd5b6114ee8561131c565b93506114fc6020860161131c565b925060408501359150606085013567ffffffffffffffff81111561151f57600080fd5b8501601f8101871361153057600080fd5b61153f878235602084016113b5565b91505092959194509250565b6000806040838503121561155e57600080fd5b6115678361131c565b91506115756020840161131c565b90509250929050565b600181811c9082168061159257607f821691505b6020821081036115b257634e487b7160e01b600052602260045260246000fd5b50919050565b634e487b7160e01b600052601160045260246000fd5b8082018082111561041a5761041a6115b8565b6000600182016115f3576115f36115b8565b5060010190565b634e487b7160e01b600052603260045260246000fd5b601f8211156107a657806000526020600020601f840160051c810160208510156116375750805b601f840160051c820191505b81811015610da65760008155600101611643565b815167ffffffffffffffff8111156116715761167161139f565b6116858161167f845461157e565b84611610565b6020601f8211600181146116b957600083156116a15750848201515b600019600385901b1c1916600184901b178455610da6565b600084815260208120601f198516915b828110156116e957878501518255602094850194600190920191016116c9565b50848210156117075786840151600019600387901b60f8161c191681555b50505050600190811b01905550565b6001600160a01b0385811682528416602082015260408101839052608060608201819052600090611749908301846112aa565b9695505050505050565b60006020828403121561176557600080fd5b81516112a381611270565b8181038181111561041a5761041a6115b8565b634e487b7160e01b600052603160045260246000fdfea26469706673582212209f7409d0f4cde8bbd9a3ff59b88ff7ce7939f362e07430f129028142d523ec5b64736f6c634300081c0033",
  "linkReferences": {},
  "deployedLinkReferences": {}
}