{
  "_format": "hh-sol-artifact-1",
  "contractName": "AstarNFTRare",
  "sourceName": "contracts/AstarNFTRare.sol",
  "abi": [
    {
      "inputs": [
        {
          "internalType": "string",
          "name": "baseTokenURI",
          "type": "string"
        }
      ],
      "stateMutability": "nonpayable",
      "type": "constructor"
    },
    {
      "inputs": [],
      "name": "ERC721EnumerableForbiddenBatchMint",
      "type": "error"
    },
    {
      "inputs": [
        {
          "internalType": "address",
          "name": "sender",
          "type": "address"
        },
        {
          "internalType": "uint256",
          "name": "tokenId",
          "type": "uint256"
        },
        {
          "internalType": "address",
          "name": "owner",
          "type": "address"
        }
      ],
      "name": "ERC721IncorrectOwner",
      "type": "error"
    },
    {
      "inputs": [
        {
          "internalType": "address",
          "name": "operator",
          "type": "address"
        },
        {
          "internalType": "uint256",
          "name": "tokenId",
          "type": "uint256"
        }
      ],
      "name": "ERC721InsufficientApproval",
      "type": "error"
    },
    {
      "inputs": [
        {
          "internalType": "address",
          "name": "approver",
          "type": "address"
        }
      ],
      "name": "ERC721InvalidApprover",
      "type": "error"
    },
    {
      "inputs": [
        {
          "internalType": "address",
          "name": "operator",
          "type": "address"
        }
      ],
      "name": "ERC721InvalidOperator",
      "type": "error"
    },
    {
      "inputs": [
        {
          "internalType": "address",
          "name": "owner",
          "type": "address"
        }
      ],
      "name": "ERC721InvalidOwner",
      "type": "error"
    },
    {
      "inputs": [
        {
          "internalType": "address",
          "name": "receiver",
          "type": "address"
        }
      ],
      "name": "ERC721InvalidReceiver",
      "type": "error"
    },
    {
      "inputs": [
        {
          "internalType": "address",
          "name": "sender",
          "type": "address"
        }
      ],
      "name": "ERC721InvalidSender",
      "type": "error"
    },
    {
      "inputs": [
        {
          "internalType": "uint256",
          "name": "tokenId",
          "type": "uint256"
        }
      ],
      "name": "ERC721NonexistentToken",
      "type": "error"
    },
    {
      "inputs": [
        {
          "internalType": "address",
          "name": "owner",
          "type": "address"
        },
        {
          "internalType": "uint256",
          "name": "index",
          "type": "uint256"
        }
      ],
      "name": "ERC721OutOfBoundsIndex",
      "type": "error"
    },
    {
      "inputs": [
        {
          "internalType": "address",
          "name": "owner",
          "type": "address"
        }
      ],
      "name": "OwnableInvalidOwner",
      "type": "error"
    },
    {
      "inputs": [
        {
          "internalType": "address",
          "name": "account",
          "type": "address"
        }
      ],
      "name": "OwnableUnauthorizedAccount",
      "type": "error"
    },
    {
      "anonymous": false,
      "inputs": [
        {
          "indexed": true,
          "internalType": "address",
          "name": "owner",
          "type": "address"
        },
        {
          "indexed": true,
          "internalType": "address",
          "name": "approved",
          "type": "address"
        },
        {
          "indexed": true,
          "internalType": "uint256",
          "name": "tokenId",
          "type": "uint256"
        }
      ],
      "name": "Approval",
      "type": "event"
    },
    {
      "anonymous": false,
      "inputs": [
        {
          "indexed": true,
          "internalType": "address",
          "name": "owner",
          "type": "address"
        },
        {
          "indexed": true,
          "internalType": "address",
          "name": "operator",
          "type": "address"
        },
        {
          "indexed": false,
          "internalType": "bool",
          "name": "approved",
          "type": "bool"
        }
      ],
      "name": "ApprovalForAll",
      "type": "event"
    },
    {
      "anonymous": false,
      "inputs": [
        {
          "indexed": true,
          "internalType": "address",
          "name": "to",
          "type": "address"
        },
        {
          "indexed": true,
          "internalType": "uint256",
          "name": "tokenId",
          "type": "uint256"
        }
      ],
      "name": "Minted",
      "type": "event"
    },
    {
      "anonymous": false,
      "inputs": [
        {
          "indexed": true,
          "internalType": "address",
          "name": "previousOwner",
          "type": "address"
        },
        {
          "indexed": true,
          "internalType": "address",
          "name": "newOwner",
          "type": "address"
        }
      ],
      "name": "OwnershipTransferred",
      "type": "event"
    },
    {
      "anonymous": false,
      "inputs": [
        {
          "indexed": true,
          "internalType": "address",
          "name": "from",
          "type": "address"
        },
        {
          "indexed": true,
          "internalType": "address",
          "name": "to",
          "type": "address"
        },
        {
          "indexed": true,
          "internalType": "uint256",
          "name": "tokenId",
          "type": "uint256"
        }
      ],
      "name": "Transfer",
      "type": "event"
    },
    {
      "inputs": [],
      "name": "MAX_MINT_PER_DAY",
      "outputs": [
        {
          "internalType": "uint256",
          "name": "",
          "type": "uint256"
        }
      ],
      "stateMutability": "view",
      "type": "function"
    },
    {
      "inputs": [],
      "name": "MAX_PER_WALLET",
      "outputs": [
        {
          "internalType": "uint256",
          "name": "",
          "type": "uint256"
        }
      ],
      "stateMutability": "view",
      "type": "function"
    },
    {
      "inputs": [
        {
          "internalType": "address",
          "name": "to",
          "type": "address"
        },
        {
          "internalType": "uint256",
          "name": "tokenId",
          "type": "uint256"
        }
      ],
      "name": "approve",
      "outputs": [],
      "stateMutability": "nonpayable",
      "type": "function"
    },
    {
      "inputs": [
        {
          "internalType": "address",
          "name": "owner",
          "type": "address"
        }
      ],
      "name": "balanceOf",
      "outputs": [
        {
          "internalType": "uint256",
          "name": "",
          "type": "uint256"
        }
      ],
      "stateMutability": "view",
      "type": "function"
    },
    {
      "inputs": [
        {
          "internalType": "uint256",
          "name": "tokenId",
          "type": "uint256"
        }
      ],
      "name": "getApproved",
      "outputs": [
        {
          "internalType": "address",
          "name": "",
          "type": "address"
        }
      ],
      "stateMutability": "view",
      "type": "function"
    },
    {
      "inputs": [],
      "name": "getCurrentSaleDay",
      "outputs": [
        {
          "internalType": "uint256",
          "name": "",
          "type": "uint256"
        }
      ],
      "stateMutability": "view",
      "type": "function"
    },
    {
      "inputs": [
        {
          "internalType": "uint256",
          "name": "day",
          "type": "uint256"
        }
      ],
      "name": "getMintedCount",
      "outputs": [
        {
          "internalType": "uint256",
          "name": "",
          "type": "uint256"
        }
      ],
      "stateMutability": "view",
      "type": "function"
    },
    {
      "inputs": [
        {
          "internalType": "address",
          "name": "owner",
          "type": "address"
        },
        {
          "internalType": "address",
          "name": "operator",
          "type": "address"
        }
      ],
      "name": "isApprovedForAll",
      "outputs": [
        {
          "internalType": "bool",
          "name": "",
          "type": "bool"
        }
      ],
      "stateMutability": "view",
      "type": "function"
    },
    {
      "inputs": [],
      "name": "mint",
      "outputs": [],
      "stateMutability": "nonpayable",
      "type": "function"
    },
    {
      "inputs": [
        {
          "internalType": "address",
          "name": "wallet",
          "type": "address"
        }
      ],
      "name": "mintedCount",
      "outputs": [
        {
          "internalType": "uint256",
          "name": "",
          "type": "uint256"
        }
      ],
      "stateMutability": "view",
      "type": "function"
    },
    {
      "inputs": [],
      "name": "name",
      "outputs": [
        {
          "internalType": "string",
          "name": "",
          "type": "string"
        }
      ],
      "stateMutability": "view",
      "type": "function"
    },
    {
      "inputs": [],
      "name": "owner",
      "outputs": [
        {
          "internalType": "address",
          "name": "",
          "type": "address"
        }
      ],
      "stateMutability": "view",
      "type": "function"
    },
    {
      "inputs": [
        {
          "internalType": "uint256",
          "name": "tokenId",
          "type": "uint256"
        }
      ],
      "name": "ownerOf",
      "outputs": [
        {
          "internalType": "address",
          "name": "",
          "type": "address"
        }
      ],
      "stateMutability": "view",
      "type": "function"
    },
    {
      "inputs": [],
      "name": "renounceOwnership",
      "outputs": [],
      "stateMutability": "nonpayable",
      "type": "function"
    },
    {
      "inputs": [
        {
          "internalType": "address",
          "name": "from",
          "type": "address"
        },
        {
          "internalType": "address",
          "name": "to",
          "type": "address"
        },
        {
          "internalType": "uint256",
          "name": "tokenId",
          "type": "uint256"
        }
      ],
      "name": "safeTransferFrom",
      "outputs": [],
      "stateMutability": "nonpayable",
      "type": "function"
    },
    {
      "inputs": [
        {
          "internalType": "address",
          "name": "from",
          "type": "address"
        },
        {
          "internalType": "address",
          "name": "to",
          "type": "address"
        },
        {
          "internalType": "uint256",
          "name": "tokenId",
          "type": "uint256"
        },
        {
          "internalType": "bytes",
          "name": "data",
          "type": "bytes"
        }
      ],
      "name": "safeTransferFrom",
      "outputs": [],
      "stateMutability": "nonpayable",
      "type": "function"
    },
    {
      "inputs": [
        {
          "internalType": "uint256",
          "name": "",
          "type": "uint256"
        }
      ],
      "name": "salePeriods",
      "outputs": [
        {
          "internalType": "uint256",
          "name": "start",
          "type": "uint256"
        },
        {
          "internalType": "uint256",
          "name": "end",
          "type": "uint256"
        },
        {
          "internalType": "uint256",
          "name": "mintedCount",
          "type": "uint256"
        }
      ],
      "stateMutability": "view",
      "type": "function"
    },
    {
      "inputs": [
        {
          "internalType": "address",
          "name": "operator",
          "type": "address"
        },
        {
          "internalType": "bool",
          "name": "approved",
          "type": "bool"
        }
      ],
      "name": "setApprovalForAll",
      "outputs": [],
      "stateMutability": "nonpayable",
      "type": "function"
    },
    {
      "inputs": [
        {
          "internalType": "string",
          "name": "_newBaseURI",
          "type": "string"
        }
      ],
      "name": "setBaseURI",
      "outputs": [],
      "stateMutability": "nonpayable",
      "type": "function"
    },
    {
      "inputs": [
        {
          "internalType": "uint256",
          "name": "day",
          "type": "uint256"
        },
        {
          "internalType": "uint256",
          "name": "start",
          "type": "uint256"
        },
        {
          "internalType": "uint256",
          "name": "end",
          "type": "uint256"
        }
      ],
      "name": "setSalePeriod",
      "outputs": [],
      "stateMutability": "nonpayable",
      "type": "function"
    },
    {
      "inputs": [
        {
          "internalType": "bytes4",
          "name": "interfaceId",
          "type": "bytes4"
        }
      ],
      "name": "supportsInterface",
      "outputs": [
        {
          "internalType": "bool",
          "name": "",
          "type": "bool"
        }
      ],
      "stateMutability": "view",
      "type": "function"
    },
    {
      "inputs": [],
      "name": "symbol",
      "outputs": [
        {
          "internalType": "string",
          "name": "",
          "type": "string"
        }
      ],
      "stateMutability": "view",
      "type": "function"
    },
    {
      "inputs": [
        {
          "internalType": "uint256",
          "name": "index",
          "type": "uint256"
        }
      ],
      "name": "tokenByIndex",
      "outputs": [
        {
          "internalType": "uint256",
          "name": "",
          "type": "uint256"
        }
      ],
      "stateMutability": "view",
      "type": "function"
    },
    {
      "inputs": [
        {
          "internalType": "address",
          "name": "owner",
          "type": "address"
        },
        {
          "internalType": "uint256",
          "name": "index",
          "type": "uint256"
        }
      ],
      "name": "tokenOfOwnerByIndex",
      "outputs": [
        {
          "internalType": "uint256",
          "name": "",
          "type": "uint256"
        }
      ],
      "stateMutability": "view",
      "type": "function"
    },
    {
      "inputs": [
        {
          "internalType": "uint256",
          "name": "tokenId",
          "type": "uint256"
        }
      ],
      "name": "tokenURI",
      "outputs": [
        {
          "internalType": "string",
          "name": "",
          "type": "string"
        }
      ],
      "stateMutability": "view",
      "type": "function"
    },
    {
      "inputs": [],
      "name": "totalSupply",
      "outputs": [
        {
          "internalType": "uint256",
          "name": "",
          "type": "uint256"
        }
      ],
      "stateMutability": "view",
      "type": "function"
    },
    {
      "inputs": [
        {
          "internalType": "address",
          "name": "from",
          "type": "address"
        },
        {
          "internalType": "address",
          "name": "to",
          "type": "address"
        },
        {
          "internalType": "uint256",
          "name": "tokenId",
          "type": "uint256"
        }
      ],
      "name": "transferFrom",
      "outputs": [],
      "stateMutability": "nonpayable",
      "type": "function"
    },
    {
      "inputs": [
        {
          "internalType": "address",
          "name": "newOwner",
          "type": "address"
        }
      ],
      "name": "transferOwnership",
      "outputs": [],
      "stateMutability": "nonpayable",
      "type": "function"
    },
    {
      "inputs": [],
      "name": "withdraw",
      "outputs": [],
      "stateMutability": "nonpayable",
      "type": "function"
    }
  ],
  "bytecode": "0x608060405234801561001057600080fd5b5060405161213b38038061213b83398101604081905261002f91610549565b60408051808201825260208082527f417374617220457870616e73696f6e3a20536f6e6569756d205072656d69756d81830152825180840190935260048352630414553560e41b9083015233916000610088838261069e565b506001610095828261069e565b5050506001600160a01b0381166100c657604051631e4fbdf760e01b81526000600482015260240160405180910390fd5b6100cf816104e1565b50600b6100dc828261069e565b505060408051606080820183526367b5d5d082526367b5e3e06020808401918252600084860181815260018252600c80845295517fd421a5181c571bba3f01190c922c3b2a896fc1d84e86c9f17ac10e67ebef8b5c5592517fd421a5181c571bba3f01190c922c3b2a896fc1d84e86c9f17ac10e67ebef8b5d5591517fd421a5181c571bba3f01190c922c3b2a896fc1d84e86c9f17ac10e67ebef8b5e55845180840186526367b7275081526367b735608183019081528187018481526002855286845291517f5d6016397a73f5e079297ac5a36fef17b4d9c3831618e63ab105738020ddd72055517f5d6016397a73f5e079297ac5a36fef17b4d9c3831618e63ab105738020ddd72155517f5d6016397a73f5e079297ac5a36fef17b4d9c3831618e63ab105738020ddd72255845180840186526367b878d081526367b886e08183019081528187018481526003855286845291517fc0da782485e77ae272268ae0a3ff44c1552ecb60b3743924de17a815e0a3cfd755517fc0da782485e77ae272268ae0a3ff44c1552ecb60b3743924de17a815e0a3cfd855517fc0da782485e77ae272268ae0a3ff44c1552ecb60b3743924de17a815e0a3cfd955845180840186526367b9ca5081526367b9d8608183019081528187018481526004855286845291517f5b84bb9e0f5aa9cc45a8bb66468db5d4816d1e75ff86b5e1f1dd8d144dab809755517f5b84bb9e0f5aa9cc45a8bb66468db5d4816d1e75ff86b5e1f1dd8d144dab809855517f5b84bb9e0f5aa9cc45a8bb66468db5d4816d1e75ff86b5e1f1dd8d144dab809955845180840186526367bb1bd081526367bb29e08183019081528187018481526005855286845291517f2cd9ebf6ff19cdd7ffcc447d7c7d47b5991f5c7392a04512134e765802361fa655517f2cd9ebf6ff19cdd7ffcc447d7c7d47b5991f5c7392a04512134e765802361fa755517f2cd9ebf6ff19cdd7ffcc447d7c7d47b5991f5c7392a04512134e765802361fa855845180840186526367bc6d5081526367bc7b608183019081528187018481526006855286845291517f980f427e00e74f6d338adfccc7468518c8c8ea00836d0dce98c5fe154e17bf2b55517f980f427e00e74f6d338adfccc7468518c8c8ea00836d0dce98c5fe154e17bf2c55517f980f427e00e74f6d338adfccc7468518c8c8ea00836d0dce98c5fe154e17bf2d55845192830185526367bdbed083526367bdcce0838201908152948301828152600790925292909252517fdae089abd7155aa13ce498edb0d7a7156b783d015031f10c9a3d4f5fcb5189715590517fdae089abd7155aa13ce498edb0d7a7156b783d015031f10c9a3d4f5fcb51897255517fdae089abd7155aa13ce498edb0d7a7156b783d015031f10c9a3d4f5fcb5189735561075c565b600a80546001600160a01b038381166001600160a01b0319831681179093556040519116919082907f8be0079c531659141344cd1fd0a4f28419497f9722a3daafe3b4186f6b6457e090600090a35050565b634e487b7160e01b600052604160045260246000fd5b60006020828403121561055b57600080fd5b81516001600160401b0381111561057157600080fd5b8201601f8101841361058257600080fd5b80516001600160401b0381111561059b5761059b610533565b604051601f8201601f19908116603f011681016001600160401b03811182821017156105c9576105c9610533565b6040528181528282016020018610156105e157600080fd5b60005b82811015610600576020818501810151838301820152016105e4565b50600091810160200191909152949350505050565b600181811c9082168061062957607f821691505b60208210810361064957634e487b7160e01b600052602260045260246000fd5b50919050565b601f82111561069957806000526020600020601f840160051c810160208510156106765750805b601f840160051c820191505b818110156106965760008155600101610682565b50505b505050565b81516001600160401b038111156106b7576106b7610533565b6106cb816106c58454610615565b8461064f565b6020601f8211600181146106ff57600083156106e75750848201515b600019600385901b1c1916600184901b178455610696565b600084815260208120601f198516915b8281101561072f578785015182556020948501946001909201910161070f565b508482101561074d5786840151600019600387901b60f8161c191681555b50505050600190811b01905550565b6119d08061076b6000396000f3fe608060405234801561001057600080fd5b50600436106101cf5760003560e01c806367b8706a11610104578063c87b56dd116100a2578063e985e9c511610071578063e985e9c5146103dc578063ec9723ad146103ef578063f2fde38b14610402578063fddcb5ea1461041557600080fd5b8063c87b56dd1461036e578063c97d0f2d14610381578063d45e7a6a146103cb578063d7109dda146103d457600080fd5b80638da5cb5b116100de5780638da5cb5b1461032f57806395d89b4114610340578063a22cb46514610348578063b88d4fde1461035b57600080fd5b806367b8706a146102f157806370a0823114610314578063715018a61461032757600080fd5b806323b872dd1161017157806342842e0e1161014b57806342842e0e146102a55780634f6ccce7146102b857806355f804b3146102cb5780636352211e146102de57600080fd5b806323b872dd146102775780632f745c591461028a5780633ccfd60b1461029d57600080fd5b8063095ea7b3116101ad578063095ea7b31461023c5780630f2cdd6c146102515780631249c58b1461026757806318160ddd1461026f57600080fd5b806301ffc9a7146101d457806306fdde03146101fc578063081812fc14610211575b600080fd5b6101e76101e236600461145b565b61043e565b60405190151581526020015b60405180910390f35b610204610469565b6040516101f391906114c5565b61022461021f3660046114d8565b6104fb565b6040516001600160a01b0390911681526020016101f3565b61024f61024a36600461150d565b610524565b005b610259600181565b6040519081526020016101f3565b61024f610533565b600854610259565b61024f610285366004611537565b61076d565b61025961029836600461150d565b6107f8565b61024f61085d565b61024f6102b3366004611537565b6108a1565b6102596102c63660046114d8565b6108c1565b61024f6102d9366004611604565b61091a565b6102246102ec3660046114d8565b61092e565b6102596102ff3660046114d8565b6000908152600c602052604090206002015490565b61025961032236600461164d565b610939565b61024f610981565b600a546001600160a01b0316610224565b610204610995565b61024f610356366004611668565b6109a4565b61024f6103693660046116a4565b6109af565b61020461037c3660046114d8565b6109c7565b6103b061038f3660046114d8565b600c6020526000908152604090208054600182015460029092015490919083565b604080519384526020840192909252908201526060016101f3565b61025961012c81565b610259610a65565b6101e76103ea366004611720565b610ac5565b61024f6103fd366004611753565b610af3565b61024f61041036600461164d565b610b79565b61025961042336600461164d565b6001600160a01b03166000908152600d602052604090205490565b60006001600160e01b0319821663780e9d6360e01b1480610463575061046382610bb4565b92915050565b6060600080546104789061177f565b80601f01602080910402602001604051908101604052809291908181526020018280546104a49061177f565b80156104f15780601f106104c6576101008083540402835291602001916104f1565b820191906000526020600020905b8154815290600101906020018083116104d457829003601f168201915b5050505050905090565b600061050682610c04565b506000828152600460205260409020546001600160a01b0316610463565b61052f828233610c3d565b5050565b600061053d610a65565b9050600081116105895760405162461bcd60e51b8152602060048201526012602482015271139bdd081a5b881cd85b19481c195c9a5bd960721b60448201526064015b60405180910390fd5b6000818152600c6020526040902080544210156105df5760405162461bcd60e51b815260206004820152601460248201527314d85b19481a185cc81b9bdd081cdd185c9d195960621b6044820152606401610580565b80600101544211156106245760405162461bcd60e51b815260206004820152600e60248201526d14d85b19481a185cc8195b99195960921b6044820152606401610580565b61012c8160020154106106795760405162461bcd60e51b815260206004820152601860248201527f4461696c79206d696e74206c696d6974207265616368656400000000000000006044820152606401610580565b336000908152600d60205260409020546001116106e25760405162461bcd60e51b815260206004820152602160248201527f4d6178206d696e74206c696d6974207265616368656420666f722077616c6c656044820152601d60fa1b6064820152608401610580565b60006106ed60085490565b6106f89060016117cf565b90506107043382610c4a565b600282018054906000610716836117e2565b9091555050336000908152600d60205260408120805491610736836117e2565b9091555050604051819033907f30385c845b448a36257a6a1716e6ad2e1bc2cbe333cde1e69fe849ad6511adfe90600090a3505050565b6001600160a01b03821661079757604051633250574960e11b815260006004820152602401610580565b60006107a4838333610c64565b9050836001600160a01b0316816001600160a01b0316146107f2576040516364283d7b60e01b81526001600160a01b0380861660048301526024820184905282166044820152606401610580565b50505050565b600061080383610939565b82106108345760405163295f44f760e21b81526001600160a01b038416600482015260248101839052604401610580565b506001600160a01b03919091166000908152600660209081526040808320938352929052205490565b610865610d39565b600a546040516001600160a01b03909116904780156108fc02916000818181858888f1935050505015801561089e573d6000803e3d6000fd5b50565b6108bc838383604051806020016040528060008152506109af565b505050565b60006108cc60085490565b82106108f55760405163295f44f760e21b81526000600482015260248101839052604401610580565b60088281548110610908576109086117fb565b90600052602060002001549050919050565b610922610d39565b600b61052f8282611858565b600061046382610c04565b60006001600160a01b038216610965576040516322718ad960e21b815260006004820152602401610580565b506001600160a01b031660009081526003602052604090205490565b610989610d39565b6109936000610d66565b565b6060600180546104789061177f565b61052f338383610db8565b6109ba84848461076d565b6107f23385858585610e57565b60606109d282610c04565b50600b80546109e09061177f565b80601f0160208091040260200160405190810160405280929190818152602001828054610a0c9061177f565b8015610a595780601f10610a2e57610100808354040283529160200191610a59565b820191906000526020600020905b815481529060010190602001808311610a3c57829003601f168201915b50505050509050919050565b600060015b60078111610abd576000818152600c60205260409020544210801590610aa157506000818152600c60205260409020600101544211155b15610aab57919050565b80610ab5816117e2565b915050610a6a565b506000905090565b6001600160a01b03918216600090815260056020908152604080832093909416825291909152205460ff1690565b610afb610d39565b808210610b3f5760405162461bcd60e51b8152602060048201526012602482015271496e76616c69642074696d652072616e676560701b6044820152606401610580565b6040805160608101825292835260208084019283526000848301818152958152600c90915220915182555160018201559051600290910155565b610b81610d39565b6001600160a01b038116610bab57604051631e4fbdf760e01b815260006004820152602401610580565b61089e81610d66565b60006001600160e01b031982166380ac58cd60e01b1480610be557506001600160e01b03198216635b5e139f60e01b145b8061046357506301ffc9a760e01b6001600160e01b0319831614610463565b6000818152600260205260408120546001600160a01b03168061046357604051637e27328960e01b815260048101849052602401610580565b6108bc8383836001610f82565b61052f828260405180602001604052806000815250611088565b600080610c728585856110a0565b90506001600160a01b038116610ccf57610cca84600880546000838152600960205260408120829055600182018355919091527ff3f7a9fe364faab93b216da50a3214154f22a0a2b415b23a84c8169e8b636ee30155565b610cf2565b846001600160a01b0316816001600160a01b031614610cf257610cf28185611199565b6001600160a01b038516610d0e57610d098461121a565b610d31565b846001600160a01b0316816001600160a01b031614610d3157610d3185856112c9565b949350505050565b600a546001600160a01b031633146109935760405163118cdaa760e01b8152336004820152602401610580565b600a80546001600160a01b038381166001600160a01b0319831681179093556040519116919082907f8be0079c531659141344cd1fd0a4f28419497f9722a3daafe3b4186f6b6457e090600090a35050565b6001600160a01b038216610dea57604051630b61174360e31b81526001600160a01b0383166004820152602401610580565b6001600160a01b03838116600081815260056020908152604080832094871680845294825291829020805460ff191686151590811790915591519182527f17307eab39ab6107e8899845ad3d59bd9653f200f220920489ca2b5937696c31910160405180910390a3505050565b6001600160a01b0383163b15610f7b57604051630a85bd0160e11b81526001600160a01b0384169063150b7a0290610e99908890889087908790600401611917565b6020604051808303816000875af1925050508015610ed4575060408051601f3d908101601f19168201909252610ed191810190611954565b60015b610f3d573d808015610f02576040519150601f19603f3d011682016040523d82523d6000602084013e610f07565b606091505b508051600003610f3557604051633250574960e11b81526001600160a01b0385166004820152602401610580565b805181602001fd5b6001600160e01b03198116630a85bd0160e11b14610f7957604051633250574960e11b81526001600160a01b0385166004820152602401610580565b505b5050505050565b8080610f9657506001600160a01b03821615155b15611058576000610fa684610c04565b90506001600160a01b03831615801590610fd25750826001600160a01b0316816001600160a01b031614155b8015610fe55750610fe38184610ac5565b155b1561100e5760405163a9fbf51f60e01b81526001600160a01b0384166004820152602401610580565b81156110565783856001600160a01b0316826001600160a01b03167f8c5be1e5ebec7d5bd14f71427d1e84f3dd0314c0f7b2291e5b200ac8c7c3b92560405160405180910390a45b505b5050600090815260046020526040902080546001600160a01b0319166001600160a01b0392909216919091179055565b6110928383611319565b6108bc336000858585610e57565b6000828152600260205260408120546001600160a01b03908116908316156110cd576110cd81848661137e565b6001600160a01b0381161561110b576110ea600085600080610f82565b6001600160a01b038116600090815260036020526040902080546000190190555b6001600160a01b0385161561113a576001600160a01b0385166000908152600360205260409020805460010190555b60008481526002602052604080822080546001600160a01b0319166001600160a01b0389811691821790925591518793918516917fddf252ad1be2c89b69c2b068fc378daa952ba7f163c4a11628f55a4df523b3ef91a4949350505050565b60006111a483610939565b6000838152600760209081526040808320546001600160a01b03881684526006909252909120919250908183146111fb57600083815260208281526040808320548584528184208190558352600790915290208290555b6000938452600760209081526040808620869055938552525081205550565b60085460009061122c90600190611971565b60008381526009602052604081205460088054939450909284908110611254576112546117fb565b906000526020600020015490508060088381548110611275576112756117fb565b60009182526020808320909101929092558281526009909152604080822084905585825281205560088054806112ad576112ad611984565b6001900381819060005260206000200160009055905550505050565b600060016112d684610939565b6112e09190611971565b6001600160a01b039093166000908152600660209081526040808320868452825280832085905593825260079052919091209190915550565b6001600160a01b03821661134357604051633250574960e11b815260006004820152602401610580565b600061135183836000610c64565b90506001600160a01b038116156108bc576040516339e3563760e11b815260006004820152602401610580565b6113898383836113e2565b6108bc576001600160a01b0383166113b757604051637e27328960e01b815260048101829052602401610580565b60405163177e802f60e01b81526001600160a01b038316600482015260248101829052604401610580565b60006001600160a01b03831615801590610d315750826001600160a01b0316846001600160a01b0316148061141c575061141c8484610ac5565b80610d315750506000908152600460205260409020546001600160a01b03908116911614919050565b6001600160e01b03198116811461089e57600080fd5b60006020828403121561146d57600080fd5b813561147881611445565b9392505050565b6000815180845260005b818110156114a557602081850181015186830182015201611489565b506000602082860101526020601f19601f83011685010191505092915050565b602081526000611478602083018461147f565b6000602082840312156114ea57600080fd5b5035919050565b80356001600160a01b038116811461150857600080fd5b919050565b6000806040838503121561152057600080fd5b611529836114f1565b946020939093013593505050565b60008060006060848603121561154c57600080fd5b611555846114f1565b9250611563602085016114f1565b929592945050506040919091013590565b634e487b7160e01b600052604160045260246000fd5b60008067ffffffffffffffff8411156115a5576115a5611574565b50604051601f19601f85018116603f0116810181811067ffffffffffffffff821117156115d4576115d4611574565b6040528381529050808284018510156115ec57600080fd5b83836020830137600060208583010152509392505050565b60006020828403121561161657600080fd5b813567ffffffffffffffff81111561162d57600080fd5b8201601f8101841361163e57600080fd5b610d318482356020840161158a565b60006020828403121561165f57600080fd5b611478826114f1565b6000806040838503121561167b57600080fd5b611684836114f1565b91506020830135801515811461169957600080fd5b809150509250929050565b600080600080608085870312156116ba57600080fd5b6116c3856114f1565b93506116d1602086016114f1565b925060408501359150606085013567ffffffffffffffff8111156116f457600080fd5b8501601f8101871361170557600080fd5b6117148782356020840161158a565b91505092959194509250565b6000806040838503121561173357600080fd5b61173c836114f1565b915061174a602084016114f1565b90509250929050565b60008060006060848603121561176857600080fd5b505081359360208301359350604090920135919050565b600181811c9082168061179357607f821691505b6020821081036117b357634e487b7160e01b600052602260045260246000fd5b50919050565b634e487b7160e01b600052601160045260246000fd5b80820180821115610463576104636117b9565b6000600182016117f4576117f46117b9565b5060010190565b634e487b7160e01b600052603260045260246000fd5b601f8211156108bc57806000526020600020601f840160051c810160208510156118385750805b601f840160051c820191505b81811015610f7b5760008155600101611844565b815167ffffffffffffffff81111561187257611872611574565b61188681611880845461177f565b84611811565b6020601f8211600181146118ba57600083156118a25750848201515b600019600385901b1c1916600184901b178455610f7b565b600084815260208120601f198516915b828110156118ea57878501518255602094850194600190920191016118ca565b50848210156119085786840151600019600387901b60f8161c191681555b50505050600190811b01905550565b6001600160a01b038581168252841660208201526040810183905260806060820181905260009061194a9083018461147f565b9695505050505050565b60006020828403121561196657600080fd5b815161147881611445565b81810381811115610463576104636117b9565b634e487b7160e01b600052603160045260246000fdfea2646970667358221220ce2ea3fbf46fb9092a43af3dfa75bbbbcc2f43ecf091099f9f48bd635e030c3264736f6c634300081c0033",
  "linkReferences": {},
  "deployedLinkReferences": {}
}